:020000040800F2
:10000000F8040020A1010008D31C0008C91B000847
:10001000D11C00080D0800082D2000080000000079
:10002000000000000000000000000000D71C0008D5
:100030009909000800000000D51C0008D91C000820
:10004000BB010008BB010008BB010008BB010008A0
:10005000BB010008BB010008BB010008BB01000890
:10006000BB010008BB010008BB010008BB01000880
:10007000BB010008BB010008BB010008BB01000870
:10008000BB010008BB010008BB010008BB01000860
:10009000BB010008BB010008BB010008BB01000850
:1000A000BB010008BB010008BB010008BB01000840
:1000B000BB010008BB010008BB010008BB01000830
:1000C000BB010008BB010008BB010008BB01000820
:1000D000BB01000821200008BB010008BB0100088B
:1000E000BB010008BB010008BB010008BB01000800
:1000F000BB010008BB010008BB010008BB010008F0
:10010000BB010008BB010008BB010008BB010008DF
:10011000BB010008BB010008BB010008BB010008CF
:10012000BB010008BB010008BB010008BB010008BF
:10013000BB010008BB010008BB010008BB010008AF
:10014000BB010008BB010008BB010008BB0100089F
:10015000BB010008BB010008BB010008BB0100088F
:10016000BB010008BB010008BB010008BB0100087F
:10017000BB010008BB010008BB0100080000000033
:10018000BB010008BB010008DFF810D000F02CFB19
:10019000004800470D2B0008AFF30080F804002052
:1001A0000648804706480047FEE7FEE7FEE7FEE711
:1001B000FEE7FEE7FEE7FEE7FEE7FEE76D1D00084F
:1001C000890100082DE9F05F0546002092469B4614
:1001D00088460646814640241BE02846414647465D
:1001E000224600F01BFA53465A46C01A914110D3DA
:1001F00011461846224600F002FA2D1A67EB010854
:100200004F4622460120002100F0F9F917EB0009C2
:100210004E41201EA4F10104DFDC484631462A4647
:100220004346BDE8F09FD2B201E000F8012B491E21
:10023000FBD270470022F6E710B513460A46044683
:100240001946FFF7F0FF204610BD2DE9FE4F80460E
:1002500081EA0300C00F0C46009021F0004123F01A
:100260000045B8EB0200A94105D240462146904620
:100270001C460B46024623F00040104347D0270D92
:10028000C7F30A00C3F30A510290401A01904028B4
:100290006BDAC3F3130040F4801B0098924620B140
:1002A0000023D2EB030A63EB0B0B01985946C0F114
:1002B0004002504600F0A3F906460D465046594606
:1002C000019A00F0BBF910EB08006141002487EAB5
:1002D000115284EAE7731A4340D0009A62B3019A3C
:1002E000012A4FEA075215DC001B61EB02014FF0B7
:1002F000004202EA0752CDE90042001C41F580119C
:1003000032462B4600F0F2F903B0BDE8F08F4046CC
:100310002146F9E7001B61EB0201001C41F5801347
:1003200000185B412018A2F5001747EB030140EAD3
:10033000D570B6196D4111E06D084FEA360645EAF1
:10034000C0754FEA0752001B61EB0201001C41F52A
:10035000801149084FEA30000019514132462B46BE
:1003600003B0BDE8F04F00F0B2B9009801224000A0
:100370000023D0EB020263EBE073009821464FEAC2
:10038000E074B8EB000061EB0401E9E783F000439F
:100390005BE781F0004158E72DE9FE4F81EA030455
:1003A00004F0004421F0004100944FF0000B23F0D2
:1003B000004350EA01045ED052EA03045BD0C3F369
:1003C0000A54C1F30A552C44A4F2F3340194A0FB5F
:1003D0000254C1F3130141F48011C3F3130343F436
:1003E000801301FB024400FB034E840A970A44EA8F
:1003F000815447EA8357A4FB076802958D0A05FBE1
:1004000007854FEA932C04FB0C542705029D4FEA05
:10041000065847EA1637B5EB08056EEB070C870E52
:10042000920E47EA811742EA8312A7FB0201B6EB5C
:100430000B0164EB00042B0D43EA0C335E1844EB14
:100440001C50DA465146E7FB0201C5F313044FEA9C
:100450000B3343EA14534FEA0432019C43EA060388
:10046000A4F10C040294009CCDE900B400F03EF924
:1004700003B0BDE8F08F00200146F9E72DE9F04D0B
:1004800081EA030404F0004B21F0004514464FF0CC
:10049000000A23F0004150EA050220D054EA01028C
:1004A0001DD0C5F30A570246C5F31303C1F3130069
:1004B000C1F30A5640F4801543F48013A7EB0608F5
:1004C000101BD64608F2FD3873EB050002D308F185
:1004D000010801E092185B41B8F1000F03DA002037
:1004E0000146BDE8F08D00204FF480110646844699
:1004F0000EE0171B73EB050705D3121B63EB050317
:1005000006434CEA010C49084FEA300092185B415F
:1005100050EA0107EDD152EA030012D082EA04004A
:1005200083EA0501084305D0101BAB4106D2012226
:10053000002306E000224FF0004302E06FF00102CA
:1005400053101AEB06004CEB085110EB0A0041EB7C
:100550000B01BDE8F04D00F0BAB80EB540F23341E2
:1005600002910021CDE900110A460B4600F0BEF8C9
:1005700003B000BD00F0004230F000400AD0C10DD1
:1005800001F56071C0F3160042EA0151C20840074C
:100590001143704700200146704701F0004330B41A
:1005A00021F0004150EA010206D00A0DA2F5607266
:1005B000C1F31301002A02DC30BC00207047440F55
:1005C00044EAC104C100E01830BC00EBC25000F0A6
:1005D00047B830B50B46014600202022012409E02F
:1005E00021FA02F59D4205D303FA02F5491B04FAEC
:1005F00002F52844151EA2F10102F1DC30BD202ACB
:1006000004DB203A00FA02F1002070479140C2F169
:10061000200320FA03F3194390407047202A04DB9B
:10062000203A21FA02F00021704721FA02F3D0406B
:10063000C2F120029140084319467047202A06DB88
:10064000CB17203A41FA02F043EAE07306E041FAA0
:1006500002F3D040C2F1200291400843194670478E
:100660000029A8BF7047401C490008BF20F00100C6
:10067000704710B4B0FA80FC00FA0CF050EA0104A4
:1006800004BF10BC704749B1CCF1200421FA04F436
:1006900011FA0CF118BF012121430843A3EB0C010F
:1006A000CB1D4FEA00614FEA102042BF002010BC72
:1006B000704700EBC35010440029A4BF10BC704722
:1006C000401C490008BF20F0010010BC704710B565
:1006D000141E73F1000408DA401C41F10001921865
:1006E0005B411A4301D120F0010010BD2DE9F04D0E
:1006F00092469B4611B1B1FA81F202E0B0FA80F263
:1007000020329046FFF77BFF04460F4640EA0A007E
:1007100041EA0B0153465A46084313D0114653EAA7
:10072000010019D0C8F140025046FFF777FF054697
:100730000E46504659464246FFF761FF084305D032
:10074000012004E020463946BDE8F08D0020054335
:1007500046EAE0762C4337430A986305E40AA0EBA7
:1007600008000022FD0A44EA47540A3002D500205E
:100770000146E9E7010510196941DDE9084500195D
:100780006941BDE8F04DA2E7C1F30A52C1F313017C
:1007900040F2FF3341F480119A4202DA0020014610
:1007A000704740F233439A42A2F2334202DC524293
:1007B000FFF734BFFFF723BF30B5041E71F100040B
:1007C00004DB4FF00044404264EB0101141E73F15E
:1007D000000405DB1C464FF00043524263EB040368
:1007E000994208BF904230BD064C074D06E0E068D4
:1007F00040F0010394E8070098471034AC42F6D368
:10080000FFF7C6FCF82C0008182D0008FEE70000D2
:1008100030B587B00546002403466A46214616488F
:1008200000F0B2F9029898B114A0019901F000FC0F
:1008300017A0029901F0FCFB19A0039901F0F8FB45
:100840001BA0049901F0F4FB1DA001F0F1FB08E0EE
:100850001EA00099EAE7295D21A001F0E9FB641CD4
:10086000A4B20498A042F6D81FA001F0E1FB0498BE
:1008700007B0C0B230BD00008C000020457874493C
:10088000642049443A20253032780D0A00000000E7
:1008900043414E204944453A2025640D0A0000009A
:1008A00043414E205254523A2025640D0A00000064
:1008B00043414E20444C433A2025640D0A00000079
:1008C0005265637620446174613A20005374644930
:1008D000642049443A20253032780D0A0000000097
:1008E00025303278202000000D0A000010B58AB0B3
:1008F000002240F2DF73CDE900320292CDE90321FC
:1009000006AB03E0845C9C54521C92B28A42F9D339
:1009100008AB06AA6946074800F041F828B106A0CE
:1009200001F086FB01200AB010BD08A001F080FB99
:100930000020F8E78C00002043414E2053656E6490
:10094000206661696C6564210D0A000043414E20F8
:1009500053656E642073756363657373210D0A00BC
:1009600000B58BB000200121CDE906010590009073
:1009700001900290039004900E20CDE90810694682
:10098000044800F07BF8002801D000F006F80BB016
:1009900000BD00008C000020704772B6FEE7F0B585
:1009A00090F820500468A468012D05D0022D03D0D2
:1009B000416A41F480215DE014F0406F01D1E5000F
:1009C00055D5C4F30164022C03D9416A41F40001F6
:1009D00050E00125A5401D608D684FF4C0739DB1A6
:1009E000CE6835434E6845EAC605066803EB041732
:1009F000F5514FF4C275076805EB04150E697E5179
:100A0000097D012905D009E00E88CD6845EA4655E3
:100A1000EBE701684E5946F480764E511179D5794D
:100A2000567941EA056195792D0445EA0625294361
:100A30004FF4C676056806EB0416A9511178D578EF
:100A400041EA0561957852782D0445EA0222114366
:100A50004FF4C475026805EB04155151006803EBAF
:100A60000411425842F0010242500020F0BD416A98
:100A700041F4001141620120F0BD000010B590F872
:100A80002020012A07D0022A05D0416A41F48021A2
:100A90004162012010BD3B48D0F8002242F0010223
:100AA000C0F80022D0F8002222F47C52C0F80022C4
:100AB000D0F800224B6A42EA0322C0F800220A7DE5
:100AC00002F01F0301229A40D0F81C329343C0F871
:100AD0001C32CB69B3B9D0F80C329343C0F80C3256
:100AE0008C894B6864F31F434C6900EBC404C4F861
:100AF00040320C890B6864F31F434C6900EBC4045B
:100B0000C4F84432CB69012B16D1D0F80C32134310
:100B1000C0F80C320C884B6864F31F434C6900EB3F
:100B2000C404C4F840320C89CB6864F31F434C6999
:100B300000EBC404C4F844328B69002BD0F80432B3
:100B40000ED01343C0F804320B69002BD0F81432D6
:100B500008D01343C0F81432096A012904D008E010
:100B60009343EFE79343F5E7D0F81C121143C0F825
:100B70001C12D0F8001221F00101C0F80012002070
:100B800010BD00000064004030B590F82040012CFA
:100B900005D0022C03D0416A41F480215DE0046855
:100BA000002955D02469A40754D04FF4D87405689F
:100BB00004EB01142D5915F00405956005682D59B5
:100BC0004ED0ED08556005682C5904F00204D4603D
:100BD0004FF4DA74056804EB01142D5905F00F0584
:100BE000156105682D59C5F30725956105682C59D0
:100BF000240C54614FF4DC72046802EB0112A45817
:100C00001C700468A458240A5C700468A458240C5E
:100C10009C700468A258120EDA704FF4DE720468F9
:100C200002EB0112A4581C710468A458240A5C71D8
:100C30000468A458240C9C710468A258120EDA713E
:100C4000006881B1016941F020010161002030BDDF
:100C5000E468A8E7416A41F400114162012030BD17
:100C60006D0D1560AFE7C16841F02001C160EDE78F
:100C700070B5040003D094F8200010B104E0012006
:100C800070BD204600F082F82068016841F0010143
:100C9000016000F037FA0546052604E000F032FA5C
:100CA000401B0A2811D820684068C007F6D0206889
:100CB000016821F00201016000F024FA05460BE012
:100CC00000F020FA401B0A2806D9606A40F4003080
:100CD000606284F82060D2E7206840688007EFD423
:100CE000207E0128206801683DD021F0800101604C
:100CF000607E01282068016838D021F04001016041
:100D0000A07E01282068016833D021F02001016015
:100D1000E07E0128206801682ED041F010010160BA
:100D2000207F01282068016829D021F00801016096
:100D3000607F01282068016824D021F0040101604F
:100D4000D4E902010843D4E904121143084361685D
:100D5000491E08432168C86100206062012084F8B0
:100D60002000002070BD41F08001C0E741F040014B
:100D7000C5E741F02001CAE721F01001CFE741F0BB
:100D80000801D4E741F00401D9E7000010B586B0AE
:100D9000044614216846FFF74DFA1449206888423A
:100DA00021D113480021026842F0007202600068FD
:100DB00000F0007005900E481038026842F0010201
:100DC0000260006800F0010005904FF4C0500090F0
:100DD0000220CDE901010320039009200490694617
:100DE000044800F091F806B010BD00000064004017
:100DF000403802400000024070B5044690F82000E0
:100E0000012804D0606A40F40020606218E00220EB
:100E100084F820002068016821F00101016000F0E1
:100E200071F905460EE000BF00F06CF9401B0A287E
:100E300008D9606A40F400306062052084F8200020
:100E4000012070BD20684068C007EDD1606270BDB0
:100E50002DE9F0410446876D00F054F9064694F8F8
:100E600035000025022806D08020606584F83450C3
:100E70000120BDE8F0812068016821F016010160C1
:100E80002068416921F080014161206C08B9A06CA3
:100E900020B12068016821F0080101602068016824
:100EA00021F0010101600CE000F02CF9801B052805
:100EB00007D920206065032084F8350084F8345079
:100EC000D7E720680068C007EED194F85C103F2097
:100ED0008840B860012084F8350084F83450002040
:100EE000C7E790F83510022903D080214165012021
:100EF0007047052180F835100068016821F0010174
:100F000001600020704700002DE9F84FDFF8BCA118
:100F10000022012503264FF00F090AF1040BAAF164
:100F2000040E00BF0B6805FA02F42340A34270D1FF
:100F30000F7907F00307012F01D0022F16D1876820
:100F40004FEA420806FA08FC27EA0C07D1F80CC061
:100F50000CFA08FC4CEA070CC0F808C04768A74325
:100F60000C79C4F3001494403C4344600C79E4438E
:100F7000A4070AD0C4684FEA420C06FA0CF7BC4337
:100F80008F6807FA0CF72743C7600C7904F0030455
:100F9000022C12D1D40800EB840CDCF82040570757
:100FA000FF0E09FA07F824EA0804D1F8108008FABD
:100FB00007F848EA0408CCF8208004684FEA420C9D
:100FC00006FA0CF7BC430F7907F0030707FA0CF792
:100FD000274307604C6814F4403F70D03C4C2768AE
:100FE00047F480472760246822F0030704F4804414
:100FF0000094384C07EB040CDCF8084897074FEADC
:10100000177809FA08F7BC43334FB84202D10027DA
:1010100024E054E0314FB84201D101271EE0304FA7
:10102000B84201D1022719E02E4FB84201D103275F
:1010300014E02D4FB84201D104270FE02B4FB842E6
:1010400001D105270AE02A4FB84201D1062705E061
:10105000284FB84201D1072700E0082707FA08F710
:101060002743CCF80878DAF800405746D1F804C096
:101070009C435FEACC2C00D51C433C60DBF800406D
:101080005F46D1F804C09C435FEA8C2C00D51C431A
:101090003C60DEF800407746D1F804C09C435FEA2C
:1010A0008C3C00D51C433C60084F083F3C68D1F89D
:1010B00004C09C435FEACC3C00D51C433C60521CFE
:1010C000102AFFF42FAFBDE8F88F0000083C014064
:1010D0004438024000300140000002400004024059
:1010E00000080240000C02400010024000140240C0
:1010F00000180240001C02400AB1816170470904D7
:10110000FBE70000014880687047000050000020A5
:1011100002488168027811448160704750000020C5
:101120000B4810B5016841F400710160016841F499
:1011300080610160016841F480710160032000F06A
:101140006FF80F2000F006F800F024F8002010BD22
:10115000003C024070B50D4D04464FF47A7128787A
:10116000B1FBF0F00A490968B1FBF0F000F016FBA2
:1011700048B9102C07D200222146501E00F030F84A
:1011800000206C6070BD012070BD00005000002088
:101190005C0000200A4808B5016841F48041016004
:1011A000006800F4804000900548001F016841F08D
:1011B00080510160006800F08050009008BD000080
:1011C00044380240002809DB00F01F020121914051
:1011D0004009800000F1E020C0F8001170470000D5
:1011E000F0B40E4B1B680C46C3F30223C3F1070592
:1011F000042D00D90425191D072901D2002300E080
:10120000DB1E012606FA05F1491E214099409E4049
:10121000761E16403143F0BC00F01ABF0CED00E022
:10122000064900F0070208684FF6FF03184040EA3D
:101230000220034A10430860704700000CED00E0F4
:101240000000FA052DE9F0470E46050065D0DFF8ED
:101250001481D8F80000F7B200F00700B04207D2BE
:1012600088F80070D8F8000000F00700B04254D1B0
:1012700028683D4C810712D5400703D5206840F40B
:10128000E05020602878000703D5206840F46040D3
:1012900020602068A96820F0F000084320602878CA
:1012A000C0072DD0304968680839012812D00228BB
:1012B00013D0032811D00968890700292DDA216885
:1012C00021F0030101432160FFF71CFF814641F239
:1012D000883A0EE009688903EFE709688901ECE7BD
:1012E000FFF710FFA0EB0901514502D90320BDE82B
:1012F000F0872068696800F00C00B0EB810FEFD137
:10130000D8F80010404601F00701B14207D9077034
:10131000006800F00700B04201D00120E7E728781C
:10132000400705D52068E96820F4E05008432060B4
:101330002878000706D52068296920F4604040EA33
:10134000C100206000F038F82168084AC1F3031199
:10135000515CC8400649086006480068FFF7FAFE7D
:101360000020C4E7003C024008380240E02C00089E
:101370005C0000205400002004480549006809680A
:10138000044AC1F38221515CC84070475C000020D0
:1013900008380240F02C0008044805490068096834
:1013A000044AC1F34231515CC84070475C000020E0
:1013B00008380240F02C0008154810B5006810F0FD
:1013C0000C02144813D04110042A0FD0082A0ED161
:1013D0000F4C241F2268236802F03F025B0207D5EE
:1013E0002068C0F38810A0FB010106E0084610BD8C
:1013F0002168C1F38811A1FB00010023FEF7E2FE82
:101400002168C1F30141491C4900B0FBF1F010BD56
:10141000083802400024F4002DE9F84F04006ED093
:101420002078DFF84C93C007A9F104054AD009F1F0
:1014300004000168C1F38101012908D00068C0F3EC
:10144000810002280AD1D9F80000400206D5286898
:10145000800337D560680028E1D033E06068B0F5DC
:10146000803F10D0B0F5A02F286810D020F4803035
:101470002860286820F4802028606068A8B1FFF701
:1014800041FE06460DE0286840F48030F4E740F461
:1014900080202860F7E700BFFFF734FE801B642838
:1014A00073D828688003F7D50CE0FFF72BFE0646BB
:1014B00005E000BFFFF726FE801B6428F0D82868EF
:1014C0008003F7D42078DFF8AC8280074FF0000A61
:1014D0003ED5A748001D016811F00C0F08D0006828
:1014E000C0F3810002280BD1D9F80000400207D4D4
:1014F0002868800716D5E068012800D112E033E1A2
:10150000E068B8B10120C8F80000FFF7FBFD06460F
:1015100005E000BFFFF7F6FD801B0228C0D8286851
:101520008007F7D52868216920F0F80040EAC1005B
:1015300028600DE0C8F800A0FFF7E4FD064604E0CF
:10154000FFF7E0FD801B02281FD828688007F7D42A
:101550002078000722D5864F87486169703771B1BE
:1015600001210160FFF7CEFD064604E0FFF7CAFD4A
:10157000801B022809D838688007F7D50EE0C0F82C
:1015800000A0FFF7BFFD064605E082E0FFF7BAFDC9
:10159000801B02287DD838688007F7D42078400760
:1015A00068D5DFF8CCB100270BF13C0BDBF800006D
:1015B000C0000BD4DBF8001041F08051CBF80010D4
:1015C000DBF80000012700F0805000906B4E30687F
:1015D000C00510D4306840F480703060FFF792FD91
:1015E000009005E0FFF78EFD0099401A022850D8C0
:1015F0003068C005F6D55E4EA0686C3601280FD065
:101600000528306810D020F001003060306820F0EC
:1016100004003060A068B8B1FFF774FD00900FE0DF
:10162000306840F00100F4E740F004003060F7E774
:10163000FFF768FD0099411A41F28830814266D86F
:1016400030688007F4D50EE0FFF75CFD009007E0FE
:10165000FFF758FD0099411A41F28830814256D86F
:1016600030688007F4D42FB1DBF8001021F08051EE
:10167000CBF80010A069C8B33D49091D0968C1F342
:10168000810102294AD00228504607D0C8F86000DC
:1016900000E03CE0FFF736FD04463BE04746C8F873
:1016A0006000FFF72FFD064605E000BFFFF72AFDAB
:1016B000801B02282BD828688001F7D4D4E90701C1
:1016C0000843A16A2E4A490802EB0141626A41EAD5
:1016D0008211084394F82C1040EA0161C9F8001007
:1016E00001203866FFF70EFD044606E03EE000BF2D
:1016F000FFF708FD001B022809D828688001F7D5EC
:1017000034E000BFFFF7FEFC001B022802D90320D3
:10171000BDE8F88F28688001F4D427E00128F7D0CD
:10172000D9F80000E26900F4800191421CD1226ADC
:1017300000F03F01914217D147F6C071626A014043
:10174000B1EB821F10D1A26A4FF0FF3300F4403199
:1017500003EB5202B1EB024F06D194F82C1000F0CB
:101760007060B0EB016F01D00120D1E70020CFE71E
:101770000438024000004742800E4742007000409B
:101780000000FFFF4FF0E0210428086903D020F09B
:1017900004000861704740F00400FAE710B5401EED
:1017A000B0F1807F01D3012010BD4FF0E0246061D3
:1017B0000F21601700F04CFC0020A0610720206181
:1017C000002010BD70477047F8B5016804460868EE
:1017D000CA684B6910F00F0F4FF0000559D003F0A5
:1017E000010602F49077374365D0C10705D0D105D3
:1017F00003D5216C41F001012164410705D5D907CA
:1018000003D0216C41F002012164810705D5D9077D
:1018100003D0216C41F004012164010707D502F0D7
:101820002001314303D0216C41F008012164216C77
:1018300000293AD0800604D5900602D5204600F053
:10184000CCFA20684069216CC0F38010090700D4ED
:1018500060B3204600F09AFA20684069400621D51E
:101860002068143050E8001F21F0400140E80012C9
:10187000002AF5D1A06BA8B16C490165A06BFFF7F8
:1018800030FB002811D0A06B016D01B0BDE8F04025
:10189000084783060FD593060DD52046BDE8F840CE
:1018A00000F09BBA2046FFF78EFFF8BD2046FFF7F9
:1018B0008AFF2564F8BD266B2023012E79D1C60648
:1018C00077D5D60675D508684868009048694006FF
:1018D00040D5A16B086840680004000CEAD0A28DD6
:1018E0008242E7D9E085C869B0F5807F2DD02068B5
:1018F0000C3050E8001F21F4807140E80012002AEB
:10190000F5D12068143050E8001F21F0010140E8B3
:101910000012002AF5D12068143050E8001F21F091
:10192000400140E80012002AF5D184F83E302563DA
:1019300020680C3050E8001F21F0100140E8001230
:10194000002AF5D1A06BFFF783FAA08DE18D401A34
:1019500081B229E0A08DE18D401A81B2E08D00288E
:10196000A8D00029A6D020680C3050E8002F22F41F
:10197000907240E80026002EF5D12068143050E81F
:10198000002F22F0010240E80026002EF5D184F855
:101990003E30256320680C3050E8002F22F0100202
:1019A00040E80023002BF5D12046FFF70BFFF8BDE0
:1019B000FFE705062BD5150629D594F83D0021280B
:1019C000F5D1A068B0F5805F01D12069B0B1206A7F
:1019D000411C2162216800784860E08C401E0004B0
:1019E000000CE084E3D12068C16821F08001C1606F
:1019F0002068C16841F04001C160D8E7206A0088D2
:101A0000C0F308004860206A801C2062E5E74006B9
:101A1000CDD55006CBD5CA68204622F04002CA6018
:101A200084F83D3000F0CFF8C1E700007D1D0008CC
:101A300070B5040004D094F83D00002510B106E014
:101A4000012070BD84F83C50204600F023F824208B
:101A500084F83D002068C16821F40051C16020462F
:101A600000F01CFA2068016921F4904101612068AE
:101A7000416921F02A0141612068C16841F40051A7
:101A8000C1602564202084F83D0084F83E000020D9
:101A900070BD000010B586B0044614216846FEF7FC
:101AA000C9FB18492068884229D1174800210268DB
:101AB00042F010020260006800F010000590124829
:101AC0001438026842F001020260006800F0010070
:101AD00005904FF4C06000900220CDE90101032081
:101AE00003900720049069460848FFF70DFA00228A
:101AF00011462520FFF774FB2520FFF763FB06B096
:101B000010BD0000001001404438024000000240B7
:101B1000704700002DE9F843044690F83D001F4649
:101B200016460D4620284CD1C5B1BEB194F83C00F4
:101B3000012846D0012084F83C004FF00008C4F88A
:101B40004080212084F83D00FFF7DCFAA68481461E
:101B5000E684A068B0F5805F03D004E00120BDE812
:101B6000F883206928B12E465FF0000584F83C8098
:101B70000EE00026FAE78021204600F015FAA0B911
:101B8000AEB116F8010B21684860E08C401EE0847D
:101B9000E08C4B464FF0000200970028EBD14FF04D
:101BA0004001204600F000FA30B10320D7E735F8B5
:101BB000020BC0F30800E6E7202084F83D00002077
:101BC000CDE70220CBE77047FEE70000114810B5D3
:101BD0000F4901600921416000214FF440328160CA
:101BE000C0E903124FF4001242610176417681761A
:101BF000C17601774177FFF73BF808B1FEF7CDFEDC
:101C0000FEF7AEFEBDE810400248FFF7F5B8000051
:101C1000006400408C00002070B586B01421684636
:101C2000FEF708FB1A480024016841F00401016036
:101C3000016801F004010591016841F02001016093
:101C4000016801F020010591016841F08001016007
:101C5000016801F080010591016841F00101016016
:101C600000680C4E00F001004FF4C06505900022A2
:101C700029463046FFF740FA01200095CDE90104DE
:101C8000694630460394FFF73FF906B070BD000087
:101C900030380240001402400C4810B50A49016077
:101CA0004FF4E1314160002181600C22C160C0E944
:101CB00004128161C161FFF7BBFE002803D0BDE8BB
:101CC0001040FEF76ABE10BD00100140B4000020B5
:101CD000FEE7FEE770477047FFF71ABA30B593B0DA
:101CE00030216846FEF7A6FA14210CA8FEF7A2FAE6
:101CF0001C480025016841F080510160006800F037
:101D0000805011901848016841F4804101600068DA
:101D1000022400F480401190012000900004019002
:101D20008001CDE9064008AA0420482182E813007A
:101D30000B906846FFF770FB08B172B6FEE70CA97E
:101D40000F2081E831004FF480500F901090022155
:101D50000CA8FFF777FA002801D072B6FEE713B09F
:101D600030BD000040380240007000400248016869
:101D700041F470010160704788ED00E010B5806BA0
:101D80000021C185C184FFF71EFD10BD01680C3123
:101D900051E8002F22F4907241E80023002BF5D186
:101DA0000168143151E8002F22F0010241E80023BC
:101DB000002BF5D1016B012909D101680C3151E8E3
:101DC000002F22F0100241E80023002BF5D1202142
:101DD00080F83E1000210163704708B590F83E106E
:101DE000222901D0022008BD82684FF480539A4214
:101DF00001D1016921B1816A9A421BD04AB10AE03E
:101E00000268816A5268C2F308020A80816A891CEA
:101E100008E0026972B10268526802F07F020A703B
:101E2000816A491C8162C18D491E0904090CC18562
:101E300003D019E002685268F1E70168CA6822F02D
:101E40002002CA600168CA6822F48072CA60016810
:101E50004A6922F001024A61202180F83E10016B9C
:101E6000012903D0FFF754FE002008BD00210163C3
:101E700001680C3151E8002F22F0100241E80023E4
:101E8000002BF5D101680A68D20602D50A684968B4
:101E90000091818DFFF796FCE6E7000070B50446DF
:101EA00000680169E26821F4405111430161216930
:101EB000A068E26908436169114308432168CA6860
:101EC00049F20C639A430243CA6020684169A269DF
:101ED00021F440711143416131492068884202D0A8
:101EE0003049884202D1FFF757FA01E0FFF744FA80
:101EF000E2690023192164253226B2F5004F626899
:101F000028D0A0FB0101930F9200FEF75BF9014678
:101F1000B0FBF5F06FF01802504301EB800006EBC8
:101F20000010B0FBF5F000F0F002B1FBF5F002EBB1
:101F30000012B1FBF5F06FF01803584301EB80007D
:101F400006EB0010B0FBF5F000F00F002168104424
:101F5000886070BDA0FB010192185B41FEF732F969
:101F60000146B0FBF5F00201B1FBF5F06FF018038C
:101F7000584301EB800006EBC000B0FBF5F000F029
:101F8000F80002EB4002B1FBF5F0584301EB800092
:101F900006EBC000B0FBF5F000F00700D6E700004C
:101FA00000100140001401402DE9F0419846174609
:101FB0000E460446069D27E0681C25D02DB1FFF78C
:101FC000A1F8A0EB0800A8421ED920680C3050E808
:101FD000001F21F4D07140E80012002AF5D12068DA
:101FE000143050E8001F21F0010140E80012002ADF
:101FF000F5D1202084F83D0084F83E00002084F8CC
:102000003C000320BDE8F0812068006836EA00004B
:1020100004D00020B842CFD00020F3E70120F9E738
:102020000148FFF7D1BB0000B4000020FEE700002C
:102030000FB4054B10B503A9044A029800F0EAF862
:1020400010BC5DF814FB000031290008640000207A
:102050000907090E002804DB00F1E02080F80014D5
:10206000704700F00F0000F1E02080F8141D704769
:1020700002E008C8121F08C1002AFAD17047704751
:10208000002001E001C1121F002AFBD170470000AF
:102090002DE9FF5F82B00021DDE90430020DDDF89B
:1020A00040B0034318D044F61050A2F2FF3242432E
:1020B0001514119801281FD0A5EB0B00401C5FEAF6
:1020C000000A4FF000064E4FDFF83891B0465046F8
:1020D00015D5CAF1000413E0119801244AA3012880
:1020E00001D16FEA0B010298119AC0E90031C0E9F1
:1020F000024206B0BDE8F09FCBF10000DFE70446E6
:102100000021404A491842EB0450CDE9001012E08A
:10211000E00707D032463B4640464946FEF73CF9C9
:102120008046894632463B4610461946FEF734F94A
:1021300006460F466410002CEAD1DDE90401DDE912
:102140000023BAF1000F06DAFEF726F942464B46A5
:10215000FEF722F905E0FEF791F942464B46FEF7FD
:102160008DF904460E460022284BFEF725FB03D8C6
:102170004FF0FF30014607E00022254B2046314654
:10218000FEF763F8FEF700FB102409E0002C0ADBE1
:102190000A220023FEF716F8039B30321A55641EFC
:1021A00050EA0102F2D1641C039AC4F111031444F1
:1021B000119A012A03D0012208430DD10AE00843F5
:1021C00004D000204FF0110B119072E7A3EB0B0528
:1021D0006D1E0DE05B4504DD4FF0000205F10105C9
:1021E00004E003DA4FF00002A5F10105002AECD06B
:1021F00002981199C0E90231C0E9004579E7000071
:10220000000014400000F03F300000000000F043E8
:102210000000E03F2DE9FF4F95B09A4688460646FC
:102220000025EEE1252877D100242746F94A01212F
:10223000039400E0044316F8013F203B01FA03F049
:102240001042F7D130782A2811D06FF02F03307860
:10225000A0F13002092A16D8039A44F0020402EBD6
:10226000820203EB42021044761C0390EFE758F819
:10227000042B0392002A03DA504244F400540390E2
:1022800044F00204761C30782E2816D116F8010F7F
:1022900044F004042A280DD06FF02F023078A0F10A
:1022A0003003092B09D807EB870302EB4303C71858
:1022B000761CF3E758F8047B761C30786C280FD036
:1022C00006DC4C2817D068280DD06A2814D104E009
:1022D000742810D07A280FD10DE044F400140AE0DD
:1022E00044F4801401E044F440147278824202D134
:1022F00004F58014761C761C307866280BD013DC2D
:10230000582877D009DC002875D04528F6D0462813
:10231000F4D047281AD193E118E0632835D0642817
:1023200079D0652812D18BE1702873D008DC67283A
:10233000F1D069286FD06E280DD06F2806D1ACE09F
:1023400073282CD0752874D0782853D0524617990A
:1023500090476D1C54E1C4F30250022809D00328B1
:102360000DD0D8F8001004280DD00D6008F1040835
:1023700046E1D8F80010EA17C1E90052F6E7D8F8AC
:1023800000100D80F2E70D70F0E718F8041B8DF8CF
:10239000001000208DF80100EB46012003E058F802
:1023A00004BB4FF0FF3061074FF0000102D40DE095
:1023B00009F101018946B9420FDA8145F8DB1BF8C2
:1023C00009100029F4D108E009F101018946814290
:1023D000FADB1BF809100029F6D103985346A0EB4D
:1023E000090721463846179A00F080FA284400EB86
:1023F000090507E044E008E10DE01BF8010B524637
:1024000017999047B9F10109F7D25346214638464A
:10241000179AF2E039E00A21C4F302524FF0000BA0
:102420000091022A06D058F8040BC117032A09D0DC
:102430000AE023E008F1070020F00702F2E80201B9
:10244000904605E000B2C117042A01D140B2C1177D
:10245000002906DA0A460021404261EB02012D22E2
:1024600002E0220504D52B228DF80420012203E08E
:10247000E20701D02022F7E7914657E00A2100E069
:1024800010214FF0000B00910BE010214FF0000BDA
:1024900044F004040827009103E008204FF0000BEB
:1024A0000090C4F30252022A05D058F8040B002110
:1024B000032A08D008E008F1070020F00702F2E83C
:1024C0000201904603E080B2042A00D1C0B24FF06E
:1024D000000922072AD53278702A07D0DDF800C01B
:1024E0008CF0100C5CEA0B0C05D00EE040228DF84D
:1024F0000420012208E050EA010306D030238DF8C1
:1025000004308DF8052002229146009B83F00803D9
:1025100053EA0B030AD150EA010201D1620705D543
:1025200030228DF804204FF001097F1E3278582A9E
:1025300004D039A20C920CAA02920BE03BA2F9E75C
:102540005B46009AFDF73EFE0C9B9B5C029A521E76
:102550000292137050EA0102F2D1029804A9081AFB
:1025600000F1200B600702D524F4803400E001273D
:102570005F4502DDA7EB0B0000E0002000EB0B0144
:10258000009003984944401A0390E00306D4534650
:102590002146179A039800F0A9F90544002706E0A0
:1025A00001A85246C05D179990476D1C7F1C4F458E
:1025B000F6DBE0030CD553462146179A039800F04A
:1025C00095F9054404E030205246179990476D1C58
:1025D0000099481E00900029F5DC08E00298029955
:1025E00052460078491C0291179990476D1CBBF127
:1025F0000001ABF1010BF1DC5BE100F065F9054492
:10260000761C307800287FF40DAE19B02846BDE85E
:10261000F08F00000928010030313233343536376D
:10262000383961626364656600000000303132331E
:1026300034353637383941424344454600000000BE
:10264000600700D4062708F1070020F00700F0E833
:102650000223804603F0004C5FEA0C0001D097A0F3
:1026600009E0200501D596A005E0E00701D095A07E
:1026700001E0AFF24C001390307823F0004365285E
:102680000CD006DC452809D046281DD047287FD12C
:102690003BE0662818D067287AD136E00021112F58
:1026A00001DB112000E0781CCDE9000104A90CA891
:1026B000FFF7EEFCDDE90D010C9A4FF0000B07F17E
:1026C0000109109200914EE04FF000400097CDE9D3
:1026D000011004A90CA8FFF7DBFCDDE90D020C9B3F
:1026E0000F994FF0000B91461093009211B9791C8D
:1026F00000EB0109B7EB090003D4C0F1FF3B07F180
:102700000109A9EB0700019042E0012F00DA01273F
:102710000021112F01DD112000E03846CDE9000134
:1027200004A90CA8FFF7B4FCDDE90D010C9A009197
:102730004FF0000BB946109221070FD4009A4A457A
:1027400003DA914601E0A9F10109B9F1010F05DDB4
:10275000109AA9F10101515C3029F4D0B84202DA93
:1027600010F1040F03DA0121CDE9011010E0002877
:1027700003DC8344A9EB000102E0411C494500DD74
:102780008946A0EB0B00401C01904FF000400290E6
:10279000200705D40198484502DB4FF0FF30019037
:1027A00000208DF84B0002980DF14B07B0F1004F5F
:1027B00025D002200C902B200D90029800280CDAD6
:1027C000404202902D200D9007E00A210298FDF76B
:1027D00000FF3031029007F8011D0C99481E0C9043
:1027E0000029F2DC02980028EFD1791E0D980870BC
:1027F000307800F0200040F0450007F8020D11A8E5
:10280000C01BC01D02901398007800B1012000EB9E
:102810000901019801EBE071029801440398401A04
:10282000401E0390E00306D453462146179A0398AE
:1028300000F05CF805441398007818B152461799D7
:1028400090476D1CE00323D553462146179A039801
:1028500000F04CF805441BE0BBF1000F07DB0098CB
:10286000584504DD1098179910F80B0001E01799EE
:1028700030205246904701980BF1010B401E05F1A4
:102880000105019004D12E205246179990476D1CE6
:10289000B9F10001A9F10109DEDC05E017F8010B2F
:1028A0005246179990476D1C0299481E02900029C4
:1028B000F4DC53462146179A03989EE62D0000004B
:1028C0002B000000200000002DE9F0410446002507
:1028D0001E461746880404D405E039462020B04738
:1028E0006D1C641EF9D52846BDE8F0812DE9F04144
:1028F000044600251E469046C80301D5302700E057
:102900002027880404D505E041463846B0476D1CB1
:10291000641EF9D52846BDE8F081000010B50446D4
:102920000420FEF72FFF0148047010BD6000002056
:1029300013B54FF6FF73012269460248FFF7EAF824
:1029400000981CBDB400002070B508212DED048B4B
:102950006048FDF7CBFF5F484830FDF759FF5D4CFD
:102960004834E078FDF7F9FD9FED5B8B53EC182BB5
:10297000FDF70CFDFDF711FE594D08212860A4F16B
:102980004000FDF7B3FF2046FDF742FFE078082145
:1029900000EE100AA4F13800B8EE400A85ED010AF5
:1029A000FDF7A4FF2046FDF733FF2079E17800EB27
:1029B0000120FDF7D2FD9FED4B1B53EC112BFDF7D2
:1029C000EBFCFDF7EAFDA8600821A4F13000FDF75B
:1029D0008DFF2046FDF71CFFE078082100EE100A6D
:1029E000A4F12800B8EE400A85ED030AFDF77EFF4A
:1029F0002046FDF70DFFE078FDF7AFFD53EC182BF7
:102A0000FDF7C4FCFDF7C9FD28610821A4F12000F1
:102A1000FDF76CFF2046FDF7FBFEE078FDF79DFD1E
:102A20009FED321B53EC112BFDF7B6FCFDF7B5FD06
:102A300068610821A4F11800FDF758FF2046FDF752
:102A4000E7FEE078FDF789FD9FED2A8B53EC182B0C
:102A5000FDF7A2FC9FED299B53EC192BFDF70EFD12
:102A6000FDF79BFDA8610821A4F11000FDF73EFFD2
:102A70002046FDF7CDFEE078FDF76FFD53EC182BF7
:102A8000FDF78AFC53EC192BFDF7F8FCFDF785FDEB
:102A9000E8610821A4F10800FDF728FF2046FDF7B2
:102AA000B7FE2079FDF759FD41EC180BE078FDF7F2
:102AB00054FD9FED141B53EC112BFDF76DFC53ECF3
:102AC000182BFDF7C2FBFDF768FD2862BDEC048BF7
:102AD00070BD000000000020000000000000444025
:102AE00068000020000000000000D03F7B14AE47CB
:102AF000E17A743F0000000000005940000000002F
:102B000000E06F400000000000007040FEF708FB8E
:102B1000FFF7E4F8FFF780F8FFF758F8FFF7BCF885
:102B20004820FFF7FBFE084C00224FF400712046BE
:102B3000FEF7E2FA012291022046FEF7DDFAFFF7E6
:102B400003FF00F003F8FEE70014024010B52E4C1E
:102B50002068FDF70FFD41EC100B2CA053EC102B5F
:102B6000FFF766FA6068FDF705FD41EC100B2DA03C
:102B700053EC102BFFF75CFAA068FDF7FBFC41EC6F
:102B8000100B2FA053EC102BFFF752FAE068FDF763
:102B9000F1FC41EC100B30A053EC102BFFF748FA7E
:102BA0002069FDF7E7FC41EC100B30A053EC102B33
:102BB000FFF73EFA6069FDF7DDFC41EC100B30A039
:102BC00053EC102BFFF734FAA069FDF7D3FC41EC6E
:102BD000100B31A053EC102BFFF72AFAE069FDF738
:102BE000C9FC41EC100B31A053EC102BFFF720FA7D
:102BF000206AFDF7BFFC41EC100BBDE8104053EC20
:102C0000102B30A0FFF714BA68000020C0E4C8B44D
:102C1000D2BACEC2B6C8CEAA252E3066B6C80D0A24
:102C200000000000BDF8C6F8C6E7B9DCBEF8B6D4AF
:102C3000D1B9C1A6CEAA252E30666B50610D0A000F
:102C4000B7A2B6AFBBFAD7AACBD9CEAA252E30668B
:102C500052706D0D0A000000B3B5CBD9CEAA252E57
:102C600030666B6D2F680D0A00000000BDF8C6F8D5
:102C7000CEC2B6C8CEAA252E3066B6C80D0A000050
:102C8000D1F5B4ABB8D0C6F731B5E7D1B9CEAA25E6
:102C90002E3266560D0A0000C8BCD3CDD2BACEBBC8
:102CA000CEAA252E326625250D0A0000B8BABAC96B
:102CB000BCC6CBE3D6B5CEAA252E326625250D0A95
:102CC00000000000B7A2B6AFBBFAC0DBBCC6D4CBD5
:102CD000D0D0CAB1BCE4CEAA252E3066730D0A004E
:102CE00000000000000000000102030406070809BC
:102CF0000000000001020304182D0008000000205D
:102D00006800000070200008802D00086800002086
:102D1000900400008020000802010500000000006F
:102D200002010B000000000002010C000000000086
:102D300002010D000000000002010F000000000071
:102D4000020114000000000002012F00000000003A
:102D5000020104000000000002011F00000000004A
:102D60000000000000000000010000001000000052
:102D7000000000000024F40000000000000000003B
:040000050800018965
:00000001FF
